:100000008AC0000090C000008EC000008CC00000BC
:100010008AC0000088C0000086C0000084C00000C4
:1000200082C0000080C000007EC000007CC00000D4
:100030007AC0000078C0000076C0000074C00000E4
:1000400072C0000070C000006EC000006CC00000F4
:100050006AC0000068C0000066C0000064C0000004
:1000600062C0000060C000005EC000005CC0000014
:100070005AC0000058C0000056C0000054C0000024
:1000800052C0000050C000004EC000001201280104
:100090002801280128012801280128012801280118
:1000A0002801280128012801280128012801280108
:1000B00028012801280128012801280128012801F8
:1000C00028012801280128012801280128012801E8
:1000D00028012601280128012801280128012801DA
:1000E00022012801280128012801280124011401E6
:1000F00016011801280128012801280128012801DA
:1001000028012801280128012801280128011A01B5
:100110001C011E01200111241FBECFEFD0E4DEBF61
:10012000CDBF50D0A0C06CCF8FEE88B90000309BFF
:1001300029C0319B29C0329B29C0339B29C08FED38
:1001400088B90000309B26C0319B26C0329B26C058
:10015000339B26C08FEB88B90000309B23C0319BB6
:1001600023C0329B23C0339B23C08FE788B9000094
:10017000309B20C0319B20C0329B20C0339B20C0CD
:1001800080E0089581E3089584E3089587E3089566
:100190008AE2089582E3089585E3089588E3089547
:1001A00080E3089583E3089586E3089589E308953D
:1001B00083E2089581E4089582E4089583E4089534
:1001C00084E408958FEF84B915B880EF87B98FE084
:1001D00088B90F2EFBE19F2EF02D0F2EFFE0AF2EE2
:1001E000F02D0F2EFEE0BF2EF02D0F2EFDE0CF2EB6
:1001F000F02D0F2EFCE0DF2EF02D0F2EFBE0EF2E6A
:10020000F02D0F2EFAE0FF2EF02D03E012E0D1E0EA
:10021000CFE18ADF90E085349105D0F4FC01EA5B00
:10022000FF4F18C0C5B9F5CFD5B9F3CF15B9F1CF88
:1002300005B9EFCFF5B8EDCFE5B8EBCFD5B8E9CF3D
:10024000C5B8E7CFB5B8E5CF15B8E3CFA5B8E1CFCE
:1002500095B8DFCFEE0FFF1F0024001C0BBE0790E8
:0A026000F691E02D0994F894FFCF09
:00000001FF
