:1000000045C0000060C000005EC000005CC0000091
:100010005AC0000058C0000056C0000054C0000084
:1000200052C0000050C000004EC000004CC0000094
:100030004AC00000E7C0000046C0000044C0000005
:1000400042C0000040C000003EC000003CC00000B4
:100050003AC0000038C0000036C0000034C00000C4
:1000600032C0000030C000002EC000002CC00000D4
:100070002AC0000028C0000026C0000024C00000E4
:1000800022C0000020C000001EC0000011241FBEBE
:10009000CFEFD0E4DEBFCDBF11E0A0E0B1E0ECE1F6
:1000A000F5E000E00BBF02C007900D92AC30B10745
:1000B000D9F721E0ACE0B1E001C01D92A034B20755
:1000C000E1F7DCD029C29CCF20B1217081309105AD
:1000D000B9F08230910529F00097A9F4222331F07C
:1000E0000895222391F080E090E0089581E09091BE
:1000F0003801911180E08093380181E090E008950B
:1001000082E090E0089580E090E00895009719F073
:10011000019731F013C020913801222329F008956E
:1001200080913801813069F081E090913A0191111C
:1001300080E080933A0181E090E0089580E090E0D3
:10014000089580E090E00895009719F0019731F04C
:1001500015C020913801222329F00895809138019B
:10016000813079F080913901882311F080E001C05D
:1001700082E08093390181E090E0089580E090E092
:10018000089580E090E0089590913A0180913901BE
:10019000892B8BB980E090E0089560930001709303
:1001A0000101809302019093030160933B017093DE
:1001B0003C0180933D0190933E0108958BE0809334
:1001C00081008DE790E0909389008093880082E021
:1001D00080936F001092850010928400809100013E
:1001E00090910101A0910201B091030180933B0124
:1001F00090933C01A0933D01B0933E018FB780687E
:100200008FBF08951F920F920FB60F9211248F93F4
:100210009F93AF93BF9380913B0190913C01A0913C
:100220003D01B0913E010197A109B10980933B01C5
:1002300090933C01A0933D01B0933E01892B8A2B02
:100240008B2B99F481E080933F0180910001909184
:100250000101A0910201B091030180933B019093B1
:100260003C01A0933D01B0933E01BF91AF919F919E
:100270008F910F900FBE0F901F901895CF93DF9323
:10028000CDB7DEB72C970FB6F894DEBF0FBECDBF4B
:1002900011B88FEF82B98AB91BB814EF01E0F12CC5
:1002A000E12C52E340E030E020E004C0162F072F9D
:1002B000F82EE92E652F742F832F922F212F302FA8
:1002C0004F2D5E2D07D1512F402F3F2D2E2D611523
:1002D00071058105910551F70F2EF8EEBF2EF02D17
:1002E0000F2EF3E0AF2EF02D912C812C04C0B62EF2
:1002F000A72E982E892E612F702F8F2D9E2D2B2D9E
:100300003A2D492D582DE6D01B2D0A2DF92CE82C1D
:10031000611571058105910551F70F2EFAE0EF2E59
:10032000F02DF12C00E010E004C0E62EF72E082F8F
:10033000192F6B2D7A2D892D982D2E2D3F2D402F85
:10034000512FC8D0BE2CAF2C902E812E6115710577
:100350008105910551F762E370E080E090E02E2D79
:100360003F2D402F512FB6D029873A874B875C8786
:1003700064EF71E080E090E02E2D3F2D402F512F53
:10038000A9D029013A0168EE73E080E090E02E2DBB
:100390003F2D402F512F9ED049015A016AE070E055
:1003A00080E090E02E2D3F2D402F512F93D088E0FC
:1003B000E4E0F1E0DE01119601900D928A95E1F7FB
:1003C000EDE2F1E06FEF608389859A85AB85BC85AE
:1003D00081839283A383B48385839683A783B08725
:1003E00084E690E092878187E2E2F1E060834182D7
:1003F000528263827482458256826782708686E862
:1004000090E092878187E7E1F1E0608381829282C8
:10041000A382B48285829682A782B08684EA90E025
:1004200092878187ECE0F1E060832183328343830C
:100430005483258336834783508784EC90E09287EA
:1004400081876E2D7F2D802F912FA7DEB7DE7E0155
:1004500099E0E90EF11CDE0111965D01F5010191B3
:1004600011915F01D80115964D915D916D917C912F
:10047000189711968D919D910D90BC91A02D4817C4
:1004800059076A077B0781F4F80180810184F285AE
:10049000E02D082E000C990B0995D8018C93F801DA
:1004A0001582168217821086F80185819681A781B0
:1004B000B0850196A11DB11D85839683A783B08762
:1004C000AE14BF0459F680913F018823E1F31092E6
:1004D0003F01C1CFA1E21A2EAA1BBB1BFD010DC01B
:1004E000AA1FBB1FEE1FFF1FA217B307E407F507E4
:1004F00020F0A21BB30BE40BF50B661F771F881FC0
:10050000991F1A9469F760957095809590959B0155
:0C051000AC01BD01CF010895F894FFCFAD
:0C051C00010000002D01220117010C015C
:00000001FF
