S02000006F6D6F72653030355F506572736F6E616C50726F6A6563742E73726563D3
S113000045C0000060C000005EC000005CC000008D
S11300105AC0000058C0000056C0000054C0000080
S113002052C0000050C000004EC000004CC0000090
S11300304AC0000048C0000046C0000044C00000A0
S113004042C0000040C000003EC000003CC00000B0
S11300503AC0000038C0000036C0000034C00000C0
S113006032C0000030C000002EC000002CC00000D0
S11300702AC0000028C0000026C0000024C00000E0
S113008022C0000020C000001EC0000011241FBEBA
S1130090CFEFD0E4DEBFCDBF11E0A0E0B1E0ECE8EB
S11300A0F6E000E00BBF02C007900D92A633B10743
S11300B0D9F721E0A6E3B1E001C01D92A933B2074C
S11300C0E1F712D1E1C29CCF0F931F93CF93DF933B
S11300D000D000D0CDB7DEB769837A838B839C834D
S11300E08091320190913301A0913401B091350196
S11300F09C01AD0169817A818B819C810FD1882318
S113010009F471C020E030E0A90169817A818B8112
S11301109C8104D1882351F481E990E021E930E005
S1130120F90120812870FC01208309C081E990E055
S113013021E930E0F90120812360FC01208328E5D6
S113014039E344E75FE369817A818B819C81E6D05E
S1130150882344F488E990E02FEF3FEFFC013183DA
S1130160208330C020E034E244EF56E469817A8190
S11301708B819C8122D2181634F488E990E0FC012A
S1130180118210821FC008E910E020E030E040E056
S113019053E469817A818B819C8113D2DC01CB0188
S11301A09C01AD0160E074E284EF9AE4BBD0DC0111
S11301B0CB01BC01CD011ED1DC01CB010197F801BB
S11301C09183808384E990E0FC011182108289810B
S11301D09A81AB81BC818093320190933301A093C7
S11301E03401B093350100000F900F900F900F90E1
S11301F0DF91CF911F910F910895CF93DF93CDB7E6
S1130200DEB780E990E020E4FC01208381E990E0FE
S11302102BE0FC01208360E070E0CB0155DF00009F
S1130220DF91CF910895CF93DF93CDB7DEB780E907
S113023090E0FC01108281E990E0FC011082000052
S1130240DF91CF910895CF93DF93CDB7DEB780913F
S11302503801882F90E08130910549F08230910572
S113026051F0892B79F581E08093380130C082E028
S1130270809338012CC0C1DF809136019091370101
S1130280880F991F80509F4FFC0180819181CC0180
S1130290A0E0B0E0BC01CD01DED0DC01CB01BC01AB
S11302A0CD0112DF8091360190913701499774F4A2
S11302B08091360190913701019690933701809394
S11302C0360104C081E08093380101C000008091B0
S11302D03801882F90E0019711F4A5DF01C00000D8
S11302E00000DF91CF910895CF93DF93CDB7DEB7B0
S11302F081E290E0FC01108282E290E02FEFFC01A9
S1130300208384E290E02FEFFC01208385E290E0DB
S1130310FC0110821092380196DFFECFD9D008F488
S113032081E008950CD00FC107D140F0FED030F029
S113033021F45F3F19F0F0C0511139C1F3C014D159
S113034098F39923C9F35523B1F3951B550BBB2798
S1130350AA2762177307840738F09F5F5F4F220F45
S1130360331F441FAA1FA9F333D00E2E3AF0E0E83E
S113037030D091505040E695001CCAF729D0FE2F8A
S113038027D0660F771F881FBB1F2617370748071C
S1130390AB07B0E809F0BB0B802DBF01FF279358D2
S11303A05F4F2AF09E3F510568F0B6C000C15F3F21
S11303B0ECF3983EDCF3869577956795B795F795BA
S11303C09F5FC9F7880F911D9695879597F90895B2
S11303D0E1E0660F771F881FBB1F6217730784074E
S11303E0BA0720F0621B730B840BBA0BEE1F88F75D
S11303F0E095089504D06894B111D9C00895BCD093
S113040088F09F5790F0B92F9927B751A0F0D1F0F9
S1130410660F771F881F991F1AF0BA95C9F712C083
S1130420B13081F0C3D0B1E00895C0C0672F782FF8
S11304308827B85F39F0B93FCCF3869577956795EF
S1130440B395D9F73EF490958095709561957F4F5B
S11304508F4F9F4F0895E89409C097FB3EF4909501
S11304608095709561957F4F8F4F9F4F9923A9F089
S1130470F92F96E9BB279395F69587957795679518
S1130480B795F111F8CFFAF4BB0F11F460FF1BC05C
S11304906F5F7F4F8F4F9F4F16C0882311F096E9EF
S11304A011C0772321F09EE8872F762F05C066239D
S11304B071F096E8862F70E060E02AF09A95660F56
S11304C0771F881FDAF7880F9695879597F908950F
S11304D0990F0008550FAA0BE0E8FEEF1616170651
S11304E0E807F907C0F012161306E407F50798F0B9
S11304F0621B730B840B950B39F40A2661F0232BD2
S1130500242B252B21F408950A2609F4A140A6954D
S11305108FEF811D811D089597F99F6780E870E032
S113052060E008959FEF80EC089500240A94161665
S1130530170618060906089500240A9412161306CD
S1130540140605060895092E0394000C11F488235B
S113055052F0BB0F40F4BF2B11F460FF04C06F5F77
S11305607F4F8F4F9F4F089557FD9058440F551F4D
S113057059F05F3F71F04795880F97FB991F61F021
S11305809F3F79F087950895121613061406551F98
S1130590F2CF4695F1DF08C0161617061806991F04
S11305A0F1CF86957105610508940895E894BB27F9
S11305B066277727CB0197F908958ADF08F48FEF30
S11305C008950BD0C0CFB1DF28F0B6DF18F0952323
S11305D009F0A2CFA7CF1124EACFC6DFA0F3959FDD
S11305E0D1F3950F50E0551F629FF001729FBB2716
S11305F0F00DB11D639FAA27F00DB11DAA1F649FC2
S11306006627B00DA11D661F829F2227B00DA11D74
S1130610621F739FB00DA11D621F839FA00D611DFA
S1130620221F749F3327A00D611D231F849F600D1B
S1130630211D822F762F6A2F11249F5750408AF054
S1130640E1F088234AF0EE0FFF1FBB1F661F771FE0
S1130650881F91505040A9F79E3F510570F05CCF20
S1130660A6CF5F3FECF3983EDCF3869577956795CC
S1130670B795F795E7959F5FC1F7FE2B880F911DFE
S10F06809695879597F90895F894FFCF9C
S113068C06010601260106015D014A010601060167
S113069C2601060188015D01060106010B02B80161
S11306AC5D014A012601D201D201B8015D01880124
S10906BC5D01000080BF97
S9030000FC
