:1000000058C0000066C0000064C0000062C000006C
:1000100060C000005EC000005CC000005AC000006C
:1000200058C0000056C0000054C0000052C000007C
:1000300050C000004EC000004CC000004AC000008C
:1000400048C0000046C0000044C0000042C000009C
:1000500040C000003EC000003CC000003AC00000AC
:1000600038C0000036C0000034C0000032C00000BC
:1000700030C000002EC000002CC000002AC00000CC
:1000800028C0000026C0000024C00000FB000F01B3
:100090001B012E014101540167017A018D01FF000E
:1000A0000701A601AC01B201B801BE01C401CA0139
:1000B000D00111241FBECFEFD0E4DEBFCDBF21E0C1
:1000C000A0E0B1E001C01D92AB30B207E1F798D1DA
:1000D00021C396CFCF92DF92EF92FF926B017C010A
:1000E0009B01AC01609100017091010180910201BE
:1000F000909103018DD1882309F452C020E030E0B3
:10010000A901C701B60184D1811106C0E1E9F0E07F
:1001100080818870808305C0E1E9F0E080818360A0
:10012000808328E539E344E75FE3C701B60170D176
:1001300088233CF48FEF9FEF909399008093980071
:1001400023C020E034E244EF56E4C701B60172D286
:1001500018162CF4109299001092980015C020E007
:1001600030E040E053E4C701B60168D29B01AC0126
:1001700060E074E284EF9AE44FD1B6D16150710926
:1001800070939900609398001092950010929400DB
:10019000C0920001D0920101E0920201F0920301AD
:1001A000FF90EF90DF90CF90089580E480939000CF
:1001B0008BE08093910060E070E0CB018BCF0895DD
:1001C0001092900010929100089580B180958270F5
:1001D0008093070190B190959470909306012091BF
:1001E0000A01422F50E04B30510508F0A0C0FA013F
:1001F000EA5BFF4F86C281E080930A01A7C091119C
:1002000003C0209104012F5F20930A0193C0811144
:1002100003C020910401215020930A018BC0811159
:1002200095C0992309F492C081E08093040189E08C
:1002300080930A010895882339F082E080930401B5
:100240008AE080930A010895992309F485C082E029
:100250008093040189E080930A010895882339F08E
:1002600083E0809304018AE080930A010895992332
:1002700009F478C083E08093040189E080930A0147
:100280000895882339F084E0809304018AE0809304
:100290000A010895992309F46BC084E08093040156
:1002A00089E080930A010895882339F085E08093DE
:1002B00004018AE080930A010895992309F45EC03D
:1002C00085E08093040189E080930A0108958823E2
:1002D00039F086E0809304018AE080930A01089552
:1002E000992309F451C086E08093040189E080934A
:1002F0000A010895882339F087E0809304018AE099
:1003000080930A010895992309F444C087E08093FB
:10031000040189E080930A010895882309F440C00C
:1003200088E0809304018AE080930A010895109286
:100330000A010895E0910A018E2F90E0FC013197A7
:10034000E830F10590F5EF5AFF4FDBC164EA70ED3C
:1003500082E893E4BFCE08956BE774ED82E993E4FD
:10036000B9CE089564EA70ED84EA93E4B3CE0895BB
:1003700061E77DE98EEA93E4ADCE089560E070E038
:1003800084EC93E4A7CE089560E070E08CED93E4F4
:10039000A1CE089564EA70EF86EF93E49BCE0895B2
:1003A00060E070ED82E094E495CE089590B181E034
:1003B000392F317090FD80E0809305019091090103
:1003C000992319F0913039F00BC0311118C081E038
:1003D0008093090108C080930901813021F00895BC
:1003E00010920901089580910801882321F010924C
:1003F0000801E6CE089581E080930801D6CE0895E5
:1004000011B88FEF80B984B913B8DFDECFDFFDCF2D
:100410009CD008F481E008950CD0D2C0CAD040F03E
:10042000C1D030F021F45F3F19F0B3C05111FCC0CE
:10043000B6C0D7D098F39923C9F35523B1F3951BD0
:10044000550BBB27AA2762177307840738F09F5FF5
:100450005F4F220F331F441FAA1FA9F333D00E2E64
:100460003AF0E0E830D091505040E695001CCAF7D1
:1004700029D0FE2F27D0660F771F881FBB1F261796
:1004800037074807AB07B0E809F0BB0B802DBF0169
:10049000FF2793585F4F2AF09E3F510568F079C0BF
:1004A000C3C05F3FECF3983EDCF386957795679584
:1004B000B795F7959F5FC9F7880F911D969587951A
:1004C00097F90895E1E0660F771F881FBB1F621739
:1004D00073078407BA0720F0621B730B840BBA0BF7
:1004E000EE1F88F7E095089504D06894B1119CC080
:1004F00008957FD088F09F5790F0B92F9927B75172
:10050000A0F0D1F0660F771F881F991F1AF0BA95D7
:10051000C9F712C0B13081F086D0B1E0089583C030
:10052000672F782F8827B85F39F0B93FCCF38695CD
:1005300077956795B395D9F73EF49095809570952A
:1005400061957F4F8F4F9F4F0895990F0008550F6A
:10055000AA0BE0E8FEEF16161706E807F907C0F049
:1005600012161306E407F50798F0621B730B840B51
:10057000950B39F40A2661F0232B242B252B21F42B
:1005800008950A2609F4A140A6958FEF811D811DCB
:10059000089597F99F6780E870E060E008959FEF05
:1005A00080EC089500240A9416161706180609060A
:1005B000089500240A9412161306140605060895D9
:1005C000092E0394000C11F4882352F0BB0F40F461
:1005D000BF2B11F460FF04C06F5F7F4F8F4F9F4FA1
:1005E000089557FD9058440F551F59F05F3F71F023
:1005F0004795880F97FB991F61F09F3F79F087958A
:100600000895121613061406551FF2CF4695F1DF12
:1006100008C0161617061806991FF1CF86957105A2
:10062000610508940895E894BB2766277727CB01D6
:1006300097F908958ADF08F48FEF08950BD0C0CFA3
:10064000B1DF28F0B6DF18F0952309F0A2CFA7CFCD
:100650001124EACFC6DFA0F3959FD1F3950F50E0A8
:10066000551F629FF001729FBB27F00DB11D639F64
:10067000AA27F00DB11DAA1F649F6627B00DA11D0A
:10068000661F829F2227B00DA11D621F739FB00DB0
:10069000A11D621F839FA00D611D221F749F332720
:1006A000A00D611D231F849F600D211D822F762FB9
:1006B0006A2F11249F5750408AF0E1F088234AF0B6
:1006C000EE0FFF1FBB1F661F771F881F9150504002
:1006D000A9F79E3F510570F05CCFA6CF5F3FECF3CA
:1006E000983EDCF3869577956795B795F795E795EE
:1006F0009F5FC1F7FE2B880F911D9695879597F9FF
:100700000895EE0FFF1F0024001C0BBE0790F6910A
:08071000E02D0994F894FFCFDD
:00000001FF
