S01000006C61625F636869702E73726563E2
S113000045C0000058C0000056C0000054C00000A5
S113001052C0000050C000004EC000004CC00000A0
S11300204AC0000048C0000046C0000044C00000B0
S113003042C0000040C000003EC000003CC00000C0
S11300403AC0000038C0000036C0000034C00000D0
S113005032C0000030C000002EC000002CC00000E0
S11300602AC0000028C0000026C0000024C00000F0
S113007022C0000020C000001EC000001CC0000000
S11300801AC0000018C0000016C0000011241FBED2
S1130090CFEFD0E4DEBFCDBF11E0A0E0B1E0EEECE5
S11300A0F2E000E00BBF02C007900D92AC30B10744
S11300B0D9F7EFD00AC1A4CFCF93DF93CDB7DEB782
S11300C081E01AD00000DF91CF910895CF93DF93A0
S11300D0CDB7DEB784E690E0ACD088E30DD086E0FF
S11300E00BD08FE009D081E007D08AE090E0A1D066
S11300F00000DF91CF910895CF93DF931F92CDB786
S1130100DEB7898382E290E022E230E0F9012081C7
S11301102E7FFC0120838BE290E02981FC01208367
S113012082E290E022E230E0F90120812260FC01C9
S11301302083000082E290E022E230E0F901208195
S11301402D7FFC01208382E090E073D000000F90AB
S1130150DF91CF910895CF93DF931F92CDB7DEB790
S1130160898382E290E022E230E0F901208121607B
S1130170FC0120838BE290E02981FC01208382E250
S113018090E022E230E0F90120812260FC0120832A
S1130190000082E290E022E230E0F90120812D7F2C
S11301A0FC01208381E090E044D000000F90DF91B7
S11301B0CF910895CF93DF9300D000D0CDB7DEB7B1
S11301C08A837C836B8378DF8A8189830FC08981EA
S11301D091E0980F998318D08B819C819C012F5FAB
S11301E03F4F3C832B83FC018081B5DF8B819C8155
S11301F0FC018081882359F700000F900F900F9025
S11302000F90DF91CF910895CF93DF931F92CDB7D5
S1130210DEB789838981813120F4898181586CDF3B
S113022003C08981815568DF00000F90DF91CF9171
S11302300895CF93DF9300D000D000D0CDB7DEB7C0
S11302409E838D831A82198213C01C821B8206C06E
S113025000008B819C8101969C838B838B819C8184
S113026087309340ACF389819A8101969A8389837C
S113027029813A818D819E812817390734F3000042
S113028026960FB6F894DEBF0FBECDBFDF91CF9197
S11302900895CF93DF93CDB7DEB781E290E02FEFDF
S11302A0FC01208382E290E0FC0110828AE290E06B
S11302B02FEFFC0120838BE290E0FC01108206DF2B
S11102C060E071E081E076DFFFCFF894FFCFBD
S10F02CE41206C612076657267610000BD
S9030000FC
