:1000000045C0000053C0000051C000004FC00000B8
:100010004DC000004BC0000049C0000047C00000B8
:1000200045C0000043C0000041C000003FC00000C8
:100030003DC000003BC0000039C0000037C00000D8
:1000400035C0000033C0000031C000002FC00000E8
:100050002DC000002BC0000029C0000027C00000F8
:1000600025C0000023C0000021C000001FC0000008
:100070001DC000001BC0000019C0000017C0000018
:1000800015C0000013C0000011C0000011241FBEE5
:10009000CFEFD0E4DEBFCDBF21E0A0E0B1E001C0F2
:1000A0001D92A130B207E1F744D05BC0A9CFCF9336
:1000B000DF93CDB7DEB780E290E0FC0180818093D2
:1000C000000180910001882F90E08230910599F025
:1000D0008330910591F0019789F485E290E0FC016D
:1000E00020812F5FFC0120831092000180E290E0CC
:1000F000FC01108203C0000001C0000080910001DB
:10010000882F90E0029771F485E290E0FC018081F5
:10011000893050F485E290E0FC0120812F5FFC01E2
:10012000208302C0000001C000000000DF91CF91D9
:100130000895CF93DF93CDB7DEB781E290E0FC0165
:10014000108282E290E02FE0FC01208384E290E0C4
:100150002FEFFC01208385E290E0FC011082A7DFF5
:06016000FECFF894FFCF72
:00000001FF
