:1000000045C0000060C000005EC000005CC0000091
:100010005AC0000058C0000056C0000054C0000084
:1000200052C0000050C000004EC000004CC0000094
:100030004AC000006DC0000046C0000044C000007F
:1000400042C0000040C000003EC000003CC00000B4
:100050003AC0000038C0000036C0000034C00000C4
:1000600032C0000030C000002EC000002CC00000D4
:100070002AC0000028C0000026C0000024C00000E4
:1000800022C0000020C000001EC0000011241FBEBE
:10009000CFEFD0E4DEBFCDBF11E0A0E0B1E0E6EBF2
:1000A000F2E000E00BBF02C007900D92A430B10750
:1000B000D9F721E0A4E0B1E001C01D92AD30B20754
:1000C000E1F7D0D0F6C09CCF8BE0809381008DE724
:1000D00090E0909389008093880082E080936F0085
:1000E000109285001092840080910001909101018E
:1000F000A0910201B0910301809304019093050146
:10010000A0930601B09307018FB780688FBF089551
:100110001F920F920FB60F9211248F939F93AF935C
:10012000BF938091040190910501A0910601B091C7
:1001300007010197A109B10980930401909305017A
:10014000A0930601B0930701892B8A2B8B2B99F47E
:1001500081E0809308018091000190910101A091BC
:100160000201B09103018093040190930501A093D3
:100170000601B0930701BF91AF919F918F910F90AE
:100180000FBE0F901F9018956093000170930101AE
:100190008093020190930301609304017093050121
:1001A0008093060190930701089580910C0183309C
:1001B00099F028F4882341F0813051F01FC0843039
:1001C00091F08530B9F01AC081E080930C01089558
:1001D00083E080930C0115C084E080930C0182E0E1
:1001E00080930A01089585E080930C0184E0809358
:1001F0000A01089583E080930C0103C010920C0162
:10020000089581E080930A01089580910B01813067
:1002100061F028F0863069F0873089F014C081E001
:1002200080930B0110920901089586E080930B01E1
:100230000DC087E080930B0110920901089586E0BC
:1002400080930B0103C010920B01089588E0809306
:100250000901089515B89091090180910A01892B2F
:1002600085B908958FEF84B915B861E070E080E03A
:1002700090E08ADF29DF00E010E0C0E0D0E00BC0B2
:1002800094DFE8DF00E010E0C83E83E0D80718F014
:10029000BCDFC0E0D0E0809108018823E1F30F5F6C
:1002A0001F4F2196109208010C3281E0180760F36D
:0602B000E7CFF894FFCF38
:0402B6000100000043
:00000001FF
