S01C00006F6D6F72653030355F6C616230345F70617274312E7372656318
S113000045C0000053C0000051C000004FC00000B4
S11300104DC000004BC0000049C0000047C00000B4
S113002045C0000043C0000041C000003FC00000C4
S11300303DC000003BC0000039C0000037C00000D4
S113004035C0000033C0000031C000002FC00000E4
S11300502DC000002BC0000029C0000027C00000F4
S113006025C0000023C0000021C000001FC0000004
S11300701DC000001BC0000019C0000017C0000014
S113008015C0000013C0000011C0000011241FBEE1
S1130090CFEFD0E4DEBFCDBF21E0A0E0B1E001C0EE
S11300A01D92A130B207E1F74DD062C0A9CFCF9322
S11300B0DF931F92CDB7DEB784E290E02FEFFC010F
S11300C0208385E290E0FC01108281E089838091A5
S11300D00001882F90E082309105D1F083309105A2
S11300E02CF4009749F0019769F021C08330910501
S11300F091F00497B1F01BC081E0898381E0809383
S1130100000115C08981813079F482E089830CC0B3
S113011082E089830CC08981823041F481E0898343
S113012005C081E0898303C0000001C00000000015
S113013085E290E02981FC01208300000F90DF918B
S1130140CF910895CF93DF93CDB7DEB781E290E0EE
S1130150FC01108282E290E02FEFFC01208380E218
S113016090E0FC018081809580930001A0DFFECFA8
S1070170F894FFCF2D
S9030000FC
