:1000000045C0000060C000005EC000005CC0000091
:100010005AC0000058C0000056C0000054C0000084
:1000200052C0000050C000004EC000004CC0000094
:100030004AC000006DC0000046C0000044C000007F
:1000400042C0000040C000003EC000003CC00000B4
:100050003AC0000038C0000036C0000034C00000C4
:1000600032C0000030C000002EC000002CC00000D4
:100070002AC0000028C0000026C0000024C00000E4
:1000800022C0000020C000001EC0000011241FBEBE
:10009000CFEFD0E4DEBFCDBF11E0A0E0B1E0EAE4F5
:1000A000F3E000E00BBF02C007900D92A430B1074F
:1000B000D9F721E0A4E0B1E001C01D92A231B2075E
:1000C000E1F7FDD040C19CCF8BE0809381008DE7AC
:1000D00090E0909389008093880082E080936F0085
:1000E000109285001092840080910001909101018E
:1000F000A0910201B09103018093090190930A013C
:10010000A0930B01B0930C018FB780688FBF089547
:100110001F920F920FB60F9211248F939F93AF935C
:10012000BF938091090190910A01A0910B01B091B8
:100130000C010197A109B1098093090190930A016B
:10014000A0930B01B0930C01892B8A2B8B2B99F474
:1001500081E080930D018091000190910101A091B7
:100160000201B09103018093090190930A01A093C9
:100170000B01B0930C01BF91AF919F918F910F90A4
:100180000FBE0F901F9018956093000170930101AE
:1001900080930201909303016093090170930A0117
:1001A00080930B0190930C0108958091110181308F
:1001B00051F028F0823059F0833069F010C081E0AE
:1001C0008093110112C082E08093110112C083E07C
:1001D0008093110112C081E08093110106C082302A
:1001E00041F0833051F0813059F481E0809308016F
:1001F000089582E080930801089584E080930801C7
:10020000089580910E01882319F0813029F007C0EC
:1002100081E080930E010CC010920E0105C088236E
:1002200019F0813039F404C088E080930701089503
:1002300010920701089580910F0181110AC09091D9
:10024000080180910701892B90910601892B8093E9
:100250000401089580B18095847080930501909188
:100260001001913051F018F0923081F018C08823BD
:10027000E1F081E0809310011BC0882321F082E02F
:100280008093100119C0109210010FC0882321F033
:1002900081E0809310010CC01092100106C09130D3
:1002A00039F018F0923051F407C010920601089509
:1002B00080E180930601089510920601089511B817
:1002C0008FEF82B984B915B862E070E080E090E009
:1002D0005BDFFADE10920F011092110110920E01F5
:1002E000812C912C5401C12CD12C76010FC089DFB7
:1002F000812C912C54018CE2C81681E0D806E104CF
:10030000F10420F052DFC12CD12C7601A3DF93DF62
:100310008091040185B980910D018823E1F3109249
:100320000D0182E0880E911CA11CB11C82E0C80E58
:10033000D11CE11CF11C88EE881683E09806A1040C
:0A034000B104C8F2D4CFF894FFCF47
:04034A0001000000AE
:00000001FF
