:1000000045C0000060C000005EC000005CC0000091
:100010005AC0000058C0000056C0000054C0000084
:1000200052C0000050C000004EC000004CC0000094
:100030004AC000006DC0000046C0000044C000007F
:1000400042C0000040C000003EC000003CC00000B4
:100050003AC0000038C0000036C0000034C00000C4
:1000600032C0000030C000002EC000002CC00000D4
:100070002AC0000028C0000026C0000024C00000E4
:1000800022C0000020C000001EC0000011241FBEBE
:10009000CFEFD0E4DEBFCDBF11E0A0E0B1E0EAE3F6
:1000A000F3E000E00BBF02C007900D92A430B1074F
:1000B000D9F721E0A4E0B1E001C01D92A031B20760
:1000C000E1F7F8D038C19CCF8BE0809381008DE7B9
:1000D00090E0909389008093880082E080936F0085
:1000E000109285001092840080910001909101018E
:1000F000A0910201B0910301809304019093050146
:10010000A0930601B09307018FB780688FBF089551
:100110001F920F920FB60F9211248F939F93AF935C
:10012000BF938091040190910501A0910601B091C7
:1001300007010197A109B10980930401909305017A
:10014000A0930601B0930701892B8A2B8B2B99F47E
:1001500081E0809308018091000190910101A091BC
:100160000201B09103018093040190930501A093D3
:100170000601B0930701BF91AF919F918F910F90AE
:100180000FBE0F901F9018956093000170930101AE
:100190008093020190930301609304017093050121
:1001A0008093060190930701089580910F01833099
:1001B00099F028F4882341F0813051F01FC0843039
:1001C00091F08530B9F01AC081E080930F01089555
:1001D00083E080930F0115C084E080930F0182E0DB
:1001E00080930C01089585E080930F0184E0809353
:1001F0000C01089583E080930F0103C010920F015A
:10020000089581E080930C01089580910E01813062
:1002100061F028F0863069F0873089F014C081E001
:1002200080930E0110920B01089586E080930E01D9
:100230000DC087E080930E0110920B01089586E0B7
:1002400080930E0103C010920E01089588E0809300
:100250000B01089580910D01813061F028F0863006
:1002600069F0873089F014C081E080930D0110920D
:100270000A01089586E080930D010DC087E0809308
:100280000D0110920A01089586E080930D0103C0CC
:1002900010920D01089580E180930A01089515B828
:1002A00090910A0180910B01892B90910C01892B6F
:1002B00085B9089514B88FEF85B984B915B861E090
:1002C00070E080E090E060DFFFDE80B180958470B8
:1002D0008093090100E010E0E12CF12CC0E0D0E0B7
:1002E0000CC0882319F0B6DFE12CF12CCC3281E070
:1002F000D80718F05ADFC0E0D0E0083E93E01907B5
:1003000018F083DF00E010E0CADF80910801882345
:10031000E1F321960F5F1F4F8FEFE81AF80A109252
:10032000080180B1809584708093090192E0E916FC
:0A033000F104B8F6DBCFF894FFCF1C
:04033A0001000000BE
:00000001FF
