:1000000045C0000060C000005EC000005CC0000091
:100010005AC0000058C0000056C0000054C0000084
:1000200052C0000050C000004EC000004CC0000094
:100030004AC000007EC0000046C0000044C000006E
:1000400042C0000040C000003EC000003CC00000B4
:100050003AC0000038C0000036C0000034C00000C4
:1000600032C0000030C000002EC000002CC00000D4
:100070002AC0000028C0000026C0000024C00000E4
:1000800022C0000020C000001EC0000011241FBEBE
:10009000CFEFD0E4DEBFCDBF11E0A0E0B1E0E6E3FA
:1000A000F3E000E00BBF02C007900D92A834B10747
:1000B000D9F721E0A8E4B1E001C01D92A835B2074C
:1000C000E1F7E4D036C19CCF609301017093020147
:1000D0008093030190930401609353017093540142
:1000E000809355019093560108958BE08093810091
:1000F0008DE790E0909389008093880082E0809360
:100100006F001092850010928400809101019091FF
:100110000201A0910301B0910401809353019093D7
:100120005401A0935501B09356018FB780688FBFDB
:1001300008951F920F920FB60F9211248F939F93E1
:10014000AF93BF938091530190915401A0915501B9
:10015000B09156010197A109B10980935301909381
:100160005401A0935501B0935601892B8A2B8B2BF8
:1001700099F481E0809357018091010190910201EF
:10018000A0910301B0910401809353019093540115
:10019000A0935501B0935601BF91AF919F918F915C
:1001A0000F900FBE0F901F901895181619065CF04F
:1001B0000895000021503109E1F74F5F5F4F841728
:1001C000950719F4089540E050E027E033E0F1CFBF
:1001D00010988BB9119A0000119882E090E0E5CF59
:1001E000089581E0F5CF0895813118F48158F0CF5A
:1001F00008958155EDCF089584E690E0D6DF88E339
:10020000E7DF86E0E5DF8FE0E3DF81E0E1DF8AE042
:1002100090E0CBCF0895109A8BB9119A00001198F5
:1002200081E090E0C2CF0895FF920F931F93CF9388
:10023000DF938C01892B19F5C1E0D0E0FF24F39402
:100240008C2FD2DF80910001FE01EB5FFE4FE80FA3
:10025000F11D32978081DFDF809100019E01280F20
:10026000311D2434310511F4F09200012196C13181
:10027000D10531F7809100018F5F80930001C801A3
:10028000DF91CF911F910F91FF9008958FEF81B96A
:1002900012B884B915B890EF97B99FE098B98AB9A8
:1002A0001BB8E8E4F1E010828AE090E0A0E0B0E062
:1002B00081839283A383B48385839683A783B08746
:1002C00084E191E09287818764E670E080E090E0CD
:1002D000FBDE0BDF91DF85DFC8E4D1E04D815E817D
:1002E0006F81788589819A81AB81BC8148175907D4
:1002F0006A077B0760F08881E985FA85082E000C83
:10030000990B099588831D821E821F8218868D8114
:100310009E81AF81B8850196A11DB11D8D839E83FD
:10032000AF83B887809157018823E1F3109257017A
:06033000D5CFF894FFCFC9
:100336000101000000202020202020202020202055
:1003460020202020435331323042206973204C65EF
:1003560067656E642E2E2E7761697420666F722033
:100366006974204441525921202020202020202039
:0803760020202020202020207F
:00000001FF
