:1000000045C0000060C000005EC000005CC0000091
:100010005AC0000058C0000056C0000054C0000084
:1000200052C0000050C000004EC000004CC0000094
:100030004AC0000048C0000046C0000044C00000A4
:1000400042C0000040C000003EC000003CC00000B4
:100050003AC0000038C0000036C0000034C00000C4
:1000600032C0000030C000002EC000002CC00000D4
:100070002AC0000028C0000026C0000024C00000E4
:1000800022C0000020C000001EC0000011241FBEBE
:10009000CFEFD0E4DEBFCDBF11E0A0E0B1E0E0E300
:1000A000F7E000E00BBF02C007900D92A430B1074B
:1000B000D9F721E0A4E0B1E001C01D92A830B20759
:1000C000E1F7A1D133C39CCF0F931F93CF93DF935D
:1000D00000D000D0CDB7DEB769837A838B839C8351
:1000E0008091000190910101A0910201B091030162
:1000F0009C01AD0169817A818B819C819ED188238D
:1001000009F471C020E030E0A90169817A818B8116
:100110009C8193D1882351F481E990E021E930E07A
:10012000F90120812870FC01208309C081E990E059
:1001300021E930E0F90120812360FC01208328E5DA
:1001400039E344E75FE369817A818B819C8175D1D2
:10015000882344F488E990E02FEF3FEFFC013183DE
:10016000208330C020E034E244EF56E469817A8194
:100170008B819C8174D2181634F488E990E0FC01DC
:10018000118210821FC008E910E020E030E040E05A
:1001900053E469817A818B819C8165D2DC01CB013A
:1001A0009C01AD0160E074E284EF9AE44AD1DC0185
:1001B000CB01BC01CD01ADD1DC01CB010197F80130
:1001C0009183808384E990E0FC011182108289810F
:1001D0009A81AB81BC818093000190930101A0932F
:1001E0000201B093030100000F900F900F900F9049
:1001F000DF91CF911F910F910895CF93DF93CDB7EA
:10020000DEB780E990E020E4FC01208381E990E002
:100210002BE0FC01208360E070E0CB0155DF0000A3
:10022000DF91CF910895CF93DF93CDB7DEB780E90B
:1002300090E0FC01108281E990E0FC011082000056
:10024000DF91CF910895CF93DF93CDB7DEB780E2F2
:1002500090E0FC018081882F90E08170992721E057
:10026000892B09F020E0822F8093040180E290E046
:10027000FC018081809582708093050180E290E08E
:10028000FC01808180958470809306018091070134
:10029000882F90E08230910509F45BC0833091058E
:1002A0002CF4009759F0019769F08FC083309105C5
:1002B00009F463C0049709F474C087C081E0809397
:1002C000070187C080910401882391F08091050186
:1002D000882371F480910601882351F482E0809391
:1002E00007018BDF64EA70ED82E893E4EDDE30C055
:1002F00080910501882391F080910401882371F495
:1003000080910601882351F483E08093070175DF13
:100310006BE774ED82E993E4D7DE1AC080910601A1
:10032000882391F080910401882371F48091050164
:10033000882351F484E0809307015FDF64EA70ED65
:1003400084EA93E4C1DE04C081E08093070141C0E8
:1003500040C080910401882361F0809105018823C9
:1003600041F480910601882321F482E08093070103
:1003700030C081E0809307012CC080910501882363
:1003800061F080910401882341F480910601882363
:1003900021F483E0809307011CC081E08093070172
:1003A00018C080910601882361F0809104018823A0
:1003B00041F480910501882321F484E080930701B2
:1003C00008C081E08093070104C081E080930701A9
:1003D000000080910701882F90E08230910551F054
:1003E000833091054CF4009749F0019709F007C05C
:1003F0001ADF05C0000003C0000001C000000000BB
:10040000DF91CF910895CF93DF93CDB7DEB781E22F
:1004100090E0FC01108282E290E02FEFFC0120834B
:1004200084E290E02FEFFC01208385E290E0FC0164
:1004300010821092070107DFFECF9CD008F481E004
:1004400008950CD0D2C0CAD040F0C1D030F021F411
:100450005F3F19F0B3C05111FCC0B6C0D7D098F3BC
:100460009923C9F35523B1F3951B550BBB27AA2735
:1004700062177307840738F09F5F5F4F220F331FA7
:10048000441FAA1FA9F333D00E2E3AF0E0E830D073
:1004900091505040E695001CCAF729D0FE2F27D076
:1004A000660F771F881FBB1F261737074807AB0744
:1004B000B0E809F0BB0B802DBF01FF2793585F4FB9
:1004C0002AF09E3F510568F079C0C3C05F3FECF34E
:1004D000983EDCF3869577956795B795F7959F5F7E
:1004E000C9F7880F911D9695879597F90895E1E0D2
:1004F000660F771F881FBB1F621773078407BA0731
:1005000020F0621B730B840BBA0BEE1F88F7E0958B
:10051000089504D06894B1119CC008957FD088F0EC
:100520009F5790F0B92F9927B751A0F0D1F0660FDF
:10053000771F881F991F1AF0BA95C9F712C0B130FA
:1005400081F086D0B1E0089583C0672F782F882787
:10055000B85F39F0B93FCCF3869577956795B39539
:10056000D9F73EF490958095709561957F4F8F4FA8
:100570009F4F0895990F0008550FAA0BE0E8FEEF72
:1005800016161706E807F907C0F012161306E40757
:10059000F50798F0621B730B840B950B39F40A2650
:1005A00061F0232B242B252B21F408950A2609F42E
:1005B000A140A6958FEF811D811D089597F99F6732
:1005C00080E870E060E008959FEF80EC08950024DB
:1005D0000A941616170618060906089500240A94A8
:1005E00012161306140605060895092E0394000C2E
:1005F00011F4882352F0BB0F40F4BF2B11F460FFBD
:1006000004C06F5F7F4F8F4F9F4F089557FD9058E5
:10061000440F551F59F05F3F71F04795880F97FBC6
:10062000991F61F09F3F79F0879508951216130680
:100630001406551FF2CF4695F1DF08C016161706AF
:100640001806991FF1CF86957105610508940895E4
:10065000E894BB2766277727CB0197F908958ADFAF
:1006600008F48FEF08950BD0C0CFB1DF28F0B6DFCC
:1006700018F0952309F0A2CFA7CF1124EACFC6DF47
:10068000A0F3959FD1F3950F50E0551F629FF001A5
:10069000729FBB27F00DB11D639FAA27F00DB11DFE
:1006A000AA1F649F6627B00DA11D661F829F222787
:1006B000B00DA11D621F739FB00DA11D621F839F0E
:1006C000A00D611D221F749F3327A00D611D231FE4
:1006D000849F600D211D822F762F6A2F11249F5732
:1006E00050408AF0E1F088234AF0EE0FFF1FBB1F55
:1006F000661F771F881F91505040A9F79E3F5105F4
:1007000070F05CCFA6CF5F3FECF3983EDCF38695AC
:1007100077956795B795F795E7959F5FC1F7FE2B9E
:10072000880F911D9695879597F90895F894FFCFB6
:04073000000080BF86
:00000001FF
